{
  "_format": "hh-sol-artifact-1",
  "contractName": "MultisigWallet",
  "sourceName": "contracts/MultisigWallet.sol",
  "abi": [
    {
      "inputs": [
        {
          "internalType": "address[]",
          "name": "_owners",
          "type": "address[]"
        },
        {
          "internalType": "uint256",
          "name": "_numConfirmationsRequired",
          "type": "uint256"
        }
      ],
      "stateMutability": "nonpayable",
      "type": "constructor"
    },
    {
      "anonymous": false,
      "inputs": [
        {
          "indexed": true,
          "internalType": "address",
          "name": "owner",
          "type": "address"
        },
        {
          "indexed": true,
          "internalType": "uint256",
          "name": "txIndex",
          "type": "uint256"
        }
      ],
      "name": "ConfirmTransaction",
      "type": "event"
    },
    {
      "anonymous": false,
      "inputs": [
        {
          "indexed": true,
          "internalType": "address",
          "name": "sender",
          "type": "address"
        },
        {
          "indexed": false,
          "internalType": "uint256",
          "name": "amount",
          "type": "uint256"
        }
      ],
      "name": "Deposit",
      "type": "event"
    },
    {
      "anonymous": false,
      "inputs": [
        {
          "indexed": true,
          "internalType": "address",
          "name": "owner",
          "type": "address"
        },
        {
          "indexed": true,
          "internalType": "uint256",
          "name": "txIndex",
          "type": "uint256"
        }
      ],
      "name": "ExecuteTransaction",
      "type": "event"
    },
    {
      "anonymous": false,
      "inputs": [
        {
          "indexed": true,
          "internalType": "address",
          "name": "owner",
          "type": "address"
        }
      ],
      "name": "OwnerAddition",
      "type": "event"
    },
    {
      "anonymous": false,
      "inputs": [
        {
          "indexed": true,
          "internalType": "address",
          "name": "owner",
          "type": "address"
        }
      ],
      "name": "OwnerRemoval",
      "type": "event"
    },
    {
      "anonymous": false,
      "inputs": [
        {
          "indexed": true,
          "internalType": "address",
          "name": "owner",
          "type": "address"
        },
        {
          "indexed": true,
          "internalType": "uint256",
          "name": "txIndex",
          "type": "uint256"
        }
      ],
      "name": "RevokeConfirmation",
      "type": "event"
    },
    {
      "anonymous": false,
      "inputs": [
        {
          "indexed": true,
          "internalType": "address",
          "name": "owner",
          "type": "address"
        },
        {
          "indexed": true,
          "internalType": "uint256",
          "name": "txIndex",
          "type": "uint256"
        },
        {
          "indexed": true,
          "internalType": "address",
          "name": "to",
          "type": "address"
        },
        {
          "indexed": false,
          "internalType": "uint256",
          "name": "value",
          "type": "uint256"
        },
        {
          "indexed": false,
          "internalType": "bytes",
          "name": "data",
          "type": "bytes"
        }
      ],
      "name": "SubmitTransaction",
      "type": "event"
    },
    {
      "inputs": [
        {
          "internalType": "uint256",
          "name": "_txIndex",
          "type": "uint256"
        }
      ],
      "name": "confirmTransaction",
      "outputs": [],
      "stateMutability": "nonpayable",
      "type": "function"
    },
    {
      "inputs": [
        {
          "internalType": "uint256",
          "name": "_txIndex",
          "type": "uint256"
        }
      ],
      "name": "executeTransaction",
      "outputs": [],
      "stateMutability": "nonpayable",
      "type": "function"
    },
    {
      "inputs": [],
      "name": "getOwners",
      "outputs": [
        {
          "internalType": "address[]",
          "name": "",
          "type": "address[]"
        }
      ],
      "stateMutability": "view",
      "type": "function"
    },
    {
      "inputs": [
        {
          "internalType": "uint256",
          "name": "_txIndex",
          "type": "uint256"
        }
      ],
      "name": "getTransaction",
      "outputs": [
        {
          "internalType": "address",
          "name": "to",
          "type": "address"
        },
        {
          "internalType": "uint256",
          "name": "value",
          "type": "uint256"
        },
        {
          "internalType": "bytes",
          "name": "data",
          "type": "bytes"
        },
        {
          "internalType": "bool",
          "name": "executed",
          "type": "bool"
        },
        {
          "internalType": "uint256",
          "name": "numConfirmations",
          "type": "uint256"
        }
      ],
      "stateMutability": "view",
      "type": "function"
    },
    {
      "inputs": [],
      "name": "getTransactionCount",
      "outputs": [
        {
          "internalType": "uint256",
          "name": "",
          "type": "uint256"
        }
      ],
      "stateMutability": "view",
      "type": "function"
    },
    {
      "inputs": [
        {
          "internalType": "uint256",
          "name": "",
          "type": "uint256"
        },
        {
          "internalType": "address",
          "name": "",
          "type": "address"
        }
      ],
      "name": "isConfirmed",
      "outputs": [
        {
          "internalType": "bool",
          "name": "",
          "type": "bool"
        }
      ],
      "stateMutability": "view",
      "type": "function"
    },
    {
      "inputs": [],
      "name": "numConfirmationsRequired",
      "outputs": [
        {
          "internalType": "uint256",
          "name": "",
          "type": "uint256"
        }
      ],
      "stateMutability": "view",
      "type": "function"
    },
    {
      "inputs": [
        {
          "internalType": "uint256",
          "name": "_txIndex",
          "type": "uint256"
        }
      ],
      "name": "revokeConfirmation",
      "outputs": [],
      "stateMutability": "nonpayable",
      "type": "function"
    },
    {
      "inputs": [
        {
          "internalType": "address",
          "name": "_to",
          "type": "address"
        },
        {
          "internalType": "uint256",
          "name": "_value",
          "type": "uint256"
        },
        {
          "internalType": "bytes",
          "name": "_data",
          "type": "bytes"
        }
      ],
      "name": "submitTransaction",
      "outputs": [],
      "stateMutability": "nonpayable",
      "type": "function"
    },
    {
      "inputs": [
        {
          "internalType": "uint256",
          "name": "",
          "type": "uint256"
        }
      ],
      "name": "transactions",
      "outputs": [
        {
          "internalType": "address",
          "name": "to",
          "type": "address"
        },
        {
          "internalType": "uint256",
          "name": "value",
          "type": "uint256"
        },
        {
          "internalType": "bytes",
          "name": "data",
          "type": "bytes"
        },
        {
          "internalType": "bool",
          "name": "executed",
          "type": "bool"
        },
        {
          "internalType": "uint256",
          "name": "numConfirmations",
          "type": "uint256"
        }
      ],
      "stateMutability": "view",
      "type": "function"
    },
    {
      "stateMutability": "payable",
      "type": "receive"
    }
  ],
  "bytecode": "0x608060405234801561001057600080fd5b5060405161139138038061139183398101604081905261002f916102b9565b600160005581516100795760405162461bcd60e51b815260206004820152600f60248201526e13dddb995c9cc81c995c5d5a5c9959608a1b60448201526064015b60405180910390fd5b60008111801561008a575081518111155b6100e75760405162461bcd60e51b815260206004820152602860248201527f496e76616c6964206e756d626572206f6620726571756972656420636f6e6669604482015267726d6174696f6e7360c01b6064820152608401610070565b60005b82518110156101f757600083828151811061010757610107610392565b6020026020010151905060006001600160a01b0316816001600160a01b0316036101635760405162461bcd60e51b815260206004820152600d60248201526c24b73b30b634b21037bbb732b960991b6044820152606401610070565b61016e600182610201565b156101ae5760405162461bcd60e51b815260206004820152601060248201526f4f776e6572206e6f7420756e6971756560801b6044820152606401610070565b6101b9600182610228565b506040516001600160a01b038216907ff39e6e1eb0edcf53c221607b54b00cd28f3196fed0a24994dc308b8f611b682d90600090a2506001016100ea565b50600355506103a8565b6001600160a01b038116600090815260018301602052604081205415155b90505b92915050565b600061021f836001600160a01b038416600081815260018301602052604081205461027f57508154600181810184556000848152602080822090930184905584548482528286019093526040902091909155610222565b506000610222565b634e487b7160e01b600052604160045260246000fd5b80516001600160a01b03811681146102b457600080fd5b919050565b600080604083850312156102cc57600080fd5b82516001600160401b038111156102e257600080fd5b8301601f810185136102f357600080fd5b80516001600160401b0381111561030c5761030c610287565b604051600582901b90603f8201601f191681016001600160401b038111828210171561033a5761033a610287565b60405291825260208184018101929081018884111561035857600080fd5b6020850194505b8385101561037e576103708561029d565b81526020948501940161035f565b506020969096015195979596505050505050565b634e487b7160e01b600052603260045260246000fd5b610fda806103b76000396000f3fe6080604052600436106100955760003560e01c8063a0e67e2b11610059578063a0e67e2b146101b8578063c01a8c84146101da578063c6427474146101fa578063d0549b851461021a578063ee22610b1461023057600080fd5b806320ea8d86146100d65780632e7700f0146100f857806333ea3dc81461011c57806380f59a651461014d5780639ace38c21461019857600080fd5b366100d15760405134815233907fe1fffcc4923d04b559f4d29a8bfc6cda04eb5b0d3c460751c2402c5c5cc9109c9060200160405180910390a2005b600080fd5b3480156100e257600080fd5b506100f66100f1366004610b20565b610250565b005b34801561010457600080fd5b506005545b6040519081526020015b60405180910390f35b34801561012857600080fd5b5061013c610137366004610b20565b6103d3565b604051610113959493929190610b39565b34801561015957600080fd5b50610188610168366004610bcf565b600460209081526000928352604080842090915290825290205460ff1681565b6040519015158152602001610113565b3480156101a457600080fd5b5061013c6101b3366004610b20565b6104ce565b3480156101c457600080fd5b506101cd6105a7565b6040516101139190610bfb565b3480156101e657600080fd5b506100f66101f5366004610b20565b6105b8565b34801561020657600080fd5b506100f6610215366004610c47565b61073b565b34801561022657600080fd5b5061010960035481565b34801561023c57600080fd5b506100f661024b366004610b20565b6108a1565b61025b600133610a8c565b6102805760405162461bcd60e51b815260040161027790610cd1565b60405180910390fd5b600554819081106102a35760405162461bcd60e51b815260040161027790610cf4565b81600581815481106102b7576102b7610d1f565b600091825260209091206003600590920201015460ff16156102eb5760405162461bcd60e51b815260040161027790610d35565b60006005848154811061030057610300610d1f565b600091825260208083208784526004825260408085203386529092529220546005909102909101915060ff1661036b5760405162461bcd60e51b815260206004820152601060248201526f151e081b9bdd0818dbdb999a5c9b595960821b6044820152606401610277565b60018160040160008282546103809190610d75565b90915550506000848152600460209081526040808320338085529252808320805460ff191690555186927ff0dca620e2e81f7841d07bcc105e1704fb01475b278a9d4c236e1c62945edd5591a350505050565b60008060606000806000600587815481106103f0576103f0610d1f565b6000918252602090912060059091020180546001820154600383015460048401546002850180549596506001600160a01b039094169492939260ff90921691839061043a90610d88565b80601f016020809104026020016040519081016040528092919081815260200182805461046690610d88565b80156104b35780601f10610488576101008083540402835291602001916104b3565b820191906000526020600020905b81548152906001019060200180831161049657829003601f168201915b50505050509250955095509550955095505091939590929450565b600581815481106104de57600080fd5b60009182526020909120600590910201805460018201546002830180546001600160a01b03909316945090929161051490610d88565b80601f016020809104026020016040519081016040528092919081815260200182805461054090610d88565b801561058d5780601f106105625761010080835404028352916020019161058d565b820191906000526020600020905b81548152906001019060200180831161057057829003601f168201915b505050506003830154600490930154919260ff1691905085565b60606105b36001610ab0565b905090565b6105c3600133610a8c565b6105df5760405162461bcd60e51b815260040161027790610cd1565b600554819081106106025760405162461bcd60e51b815260040161027790610cf4565b816005818154811061061657610616610d1f565b600091825260209091206003600590920201015460ff161561064a5760405162461bcd60e51b815260040161027790610d35565b6000838152600460209081526040808320338452909152902054839060ff16156106aa5760405162461bcd60e51b8152602060048201526011602482015270105b1c9958591e4818dbdb999a5c9b5959607a1b6044820152606401610277565b6000600585815481106106bf576106bf610d1f565b9060005260206000209060050201905060018160040160008282546106e49190610dc2565b90915550506000858152600460209081526040808320338085529252808320805460ff191660011790555187927f5cbe105e36805f7820e291f799d5794ff948af2a5f664e580382defb6339004191a35050505050565b610746600133610a8c565b6107625760405162461bcd60e51b815260040161027790610cd1565b6000600580549050905060056040518060a00160405280876001600160a01b0316815260200186815260200185858080601f01602080910402602001604051908101604052809392919081815260200183838082843760009201829052509385525050506020808301829052604092830182905284546001808201875595835291819020845160059093020180546001600160a01b0319166001600160a01b0390931692909217825583015193810193909355810151909190600282019061082a9082610e3a565b50606082015160038201805460ff19169115159190911790556080909101516004909101556040516001600160a01b03861690829033907fd5a05bf70715ad82a09a756320284a1b54c9ff74cd0f8cce6219e79b563fe59d9061089290899089908990610ef9565b60405180910390a45050505050565b6108ac600133610a8c565b6108c85760405162461bcd60e51b815260040161027790610cd1565b600554819081106108eb5760405162461bcd60e51b815260040161027790610cf4565b81600581815481106108ff576108ff610d1f565b600091825260209091206003600590920201015460ff16156109335760405162461bcd60e51b815260040161027790610d35565b60006005848154811061094857610948610d1f565b90600052602060002090600502019050600354816004015410156109a25760405162461bcd60e51b8152602060048201526011602482015270086c2dcdcdee840caf0cac6eae8ca40e8f607b1b6044820152606401610277565b60038101805460ff191660019081179091558154908201546040516000926001600160a01b031691906109d9906002860190610f2f565b60006040518083038185875af1925050503d8060008114610a16576040519150601f19603f3d011682016040523d82523d6000602084013e610a1b565b606091505b5050905080610a585760405162461bcd60e51b8152602060048201526009602482015268151e0819985a5b195960ba1b6044820152606401610277565b604051859033907f5445f318f4f5fcfb66592e68e0cc5822aa15664039bd5f0ffde24c5a8142b1ac90600090a35050505050565b6001600160a01b038116600090815260018301602052604090205415155b92915050565b60606000610abd83610ac4565b9392505050565b606081600001805480602002602001604051908101604052809291908181526020018280548015610b1457602002820191906000526020600020905b815481526020019060010190808311610b00575b50505050509050919050565b600060208284031215610b3257600080fd5b5035919050565b60018060a01b038616815284602082015260a06040820152600084518060a084015260005b81811015610b7b57602081880181015160c0868401015201610b5e565b50600060c0828501015260c0601f19601f830116840101915050610ba3606083018515159052565b8260808301529695505050505050565b80356001600160a01b0381168114610bca57600080fd5b919050565b60008060408385031215610be257600080fd5b82359150610bf260208401610bb3565b90509250929050565b602080825282518282018190526000918401906040840190835b81811015610c3c5783516001600160a01b0316835260209384019390920191600101610c15565b509095945050505050565b60008060008060608587031215610c5d57600080fd5b610c6685610bb3565b935060208501359250604085013567ffffffffffffffff811115610c8957600080fd5b8501601f81018713610c9a57600080fd5b803567ffffffffffffffff811115610cb157600080fd5b876020828401011115610cc357600080fd5b949793965060200194505050565b6020808252600990820152682737ba1037bbb732b960b91b604082015260600190565b602080825260119082015270151e08191bd95cc81b9bdd08195e1a5cdd607a1b604082015260600190565b634e487b7160e01b600052603260045260246000fd5b60208082526010908201526f105b1c9958591e48195e1958dd5d195960821b604082015260600190565b634e487b7160e01b600052601160045260246000fd5b81810381811115610aaa57610aaa610d5f565b600181811c90821680610d9c57607f821691505b602082108103610dbc57634e487b7160e01b600052602260045260246000fd5b50919050565b80820180821115610aaa57610aaa610d5f565b634e487b7160e01b600052604160045260246000fd5b601f821115610e3557806000526020600020601f840160051c81016020851015610e125750805b601f840160051c820191505b81811015610e325760008155600101610e1e565b50505b505050565b815167ffffffffffffffff811115610e5457610e54610dd5565b610e6881610e628454610d88565b84610deb565b6020601f821160018114610e9c5760008315610e845750848201515b600019600385901b1c1916600184901b178455610e32565b600084815260208120601f198516915b82811015610ecc5787850151825560209485019460019092019101610eac565b5084821015610eea5786840151600019600387901b60f8161c191681555b50505050600190811b01905550565b83815260406020820152816040820152818360608301376000818301606090810191909152601f909201601f1916010192915050565b6000808354610f3d81610d88565b600182168015610f545760018114610f6957610f99565b60ff1983168652811515820286019350610f99565b86600052602060002060005b83811015610f9157815488820152600190910190602001610f75565b505081860193505b50919594505050505056fea26469706673582212203f7412f3c4810fcac3cd6e002f830483895c5c0866b1459b453f30d30351166664736f6c634300081c0033",
  "linkReferences": {},
  "deployedLinkReferences": {}
}