{
  "_format": "hh-sol-artifact-1",
  "contractName": "Crowdfunding",
  "sourceName": "contracts/Crowdfunding.sol",
  "abi": [
    {
      "inputs": [
        {
          "internalType": "uint256",
          "name": "",
          "type": "uint256"
        }
      ],
      "name": "campaigns",
      "outputs": [
        {
          "internalType": "address",
          "name": "owner",
          "type": "address"
        },
        {
          "internalType": "string",
          "name": "title",
          "type": "string"
        },
        {
          "internalType": "string",
          "name": "description",
          "type": "string"
        },
        {
          "internalType": "uint256",
          "name": "target",
          "type": "uint256"
        },
        {
          "internalType": "uint256",
          "name": "deadline",
          "type": "uint256"
        },
        {
          "internalType": "uint256",
          "name": "amountCollected",
          "type": "uint256"
        },
        {
          "internalType": "string",
          "name": "image",
          "type": "string"
        }
      ],
      "stateMutability": "view",
      "type": "function"
    },
    {
      "inputs": [
        {
          "internalType": "address",
          "name": "_owner",
          "type": "address"
        },
        {
          "internalType": "string",
          "name": "_title",
          "type": "string"
        },
        {
          "internalType": "string",
          "name": "_description",
          "type": "string"
        },
        {
          "internalType": "uint256",
          "name": "_target",
          "type": "uint256"
        },
        {
          "internalType": "uint256",
          "name": "_deadline",
          "type": "uint256"
        },
        {
          "internalType": "string",
          "name": "_image",
          "type": "string"
        }
      ],
      "name": "createCampaign",
      "outputs": [
        {
          "internalType": "uint256",
          "name": "",
          "type": "uint256"
        }
      ],
      "stateMutability": "nonpayable",
      "type": "function"
    },
    {
      "inputs": [
        {
          "internalType": "uint256",
          "name": "_id",
          "type": "uint256"
        }
      ],
      "name": "donateToCampaign",
      "outputs": [],
      "stateMutability": "payable",
      "type": "function"
    },
    {
      "inputs": [],
      "name": "getCampaigns",
      "outputs": [
        {
          "components": [
            {
              "internalType": "address",
              "name": "owner",
              "type": "address"
            },
            {
              "internalType": "string",
              "name": "title",
              "type": "string"
            },
            {
              "internalType": "string",
              "name": "description",
              "type": "string"
            },
            {
              "internalType": "uint256",
              "name": "target",
              "type": "uint256"
            },
            {
              "internalType": "uint256",
              "name": "deadline",
              "type": "uint256"
            },
            {
              "internalType": "uint256",
              "name": "amountCollected",
              "type": "uint256"
            },
            {
              "internalType": "string",
              "name": "image",
              "type": "string"
            },
            {
              "internalType": "address[]",
              "name": "donators",
              "type": "address[]"
            },
            {
              "internalType": "uint256[]",
              "name": "donations",
              "type": "uint256[]"
            }
          ],
          "internalType": "struct Crowdfunding.Campaign[]",
          "name": "",
          "type": "tuple[]"
        }
      ],
      "stateMutability": "view",
      "type": "function"
    },
    {
      "inputs": [
        {
          "internalType": "uint256",
          "name": "_id",
          "type": "uint256"
        }
      ],
      "name": "getDonators",
      "outputs": [
        {
          "internalType": "address[]",
          "name": "",
          "type": "address[]"
        },
        {
          "internalType": "uint256[]",
          "name": "",
          "type": "uint256[]"
        }
      ],
      "stateMutability": "view",
      "type": "function"
    },
    {
      "inputs": [],
      "name": "numberOfCampaigns",
      "outputs": [
        {
          "internalType": "uint256",
          "name": "",
          "type": "uint256"
        }
      ],
      "stateMutability": "view",
      "type": "function"
    }
  ],
  "bytecode": "0x60806040526000600155348015601457600080fd5b50610fae806100246000396000f3fe6080604052600436106100555760003560e01c806307ca140d1461005a5780630fa91fa914610083578063141961bc146100b157806342a4fda8146100e45780639943e3a1146100f9578063a6b0363314610119575b600080fd5b34801561006657600080fd5b5061007060015481565b6040519081526020015b60405180910390f35b34801561008f57600080fd5b506100a361009e366004610981565b61013b565b60405161007a92919061099a565b3480156100bd57600080fd5b506100d16100cc366004610981565b610208565b60405161007a9796959493929190610a6b565b6100f76100f2366004610981565b6103e5565b005b34801561010557600080fd5b50610070610114366004610b7a565b6104f9565b34801561012557600080fd5b5061012e6105e5565b60405161007a9190610cb6565b600081815260208181526040918290206007810180548451818502810185019095528085526060948594600885019284918301828280156101a557602002820191906000526020600020905b81546001600160a01b03168152600190910190602001808311610187575b50505050509150808054806020026020016040519081016040528092919081815260200182805480156101f757602002820191906000526020600020905b8154815260200190600101908083116101e3575b505050505090509250925050915091565b600060208190529081526040902080546001820180546001600160a01b03909216929161023490610dc5565b80601f016020809104026020016040519081016040528092919081815260200182805461026090610dc5565b80156102ad5780601f10610282576101008083540402835291602001916102ad565b820191906000526020600020905b81548152906001019060200180831161029057829003601f168201915b5050505050908060020180546102c290610dc5565b80601f01602080910402602001604051908101604052809291908181526020018280546102ee90610dc5565b801561033b5780601f106103105761010080835404028352916020019161033b565b820191906000526020600020905b81548152906001019060200180831161031e57829003601f168201915b50505050509080600301549080600401549080600501549080600601805461036290610dc5565b80601f016020809104026020016040519081016040528092919081815260200182805461038e90610dc5565b80156103db5780601f106103b0576101008083540402835291602001916103db565b820191906000526020600020905b8154815290600101906020018083116103be57829003601f168201915b5050505050905087565b60008181526020819052604090206004810154421061043c5760405162461bcd60e51b815260206004820152600e60248201526d10d85b5c185a59db88195b99195960921b60448201526064015b60405180910390fd5b600781018054600180820183556000928352602080842090920180546001600160a01b031916331790556008840180549182018155835290822034910181905582546040519192916001600160a01b039091169083908381818185875af1925050503d80600081146104ca576040519150601f19603f3d011682016040523d82523d6000602084013e6104cf565b606091505b5050905080156104f357818360050160008282546104ed9190610e0f565b90915550505b50505050565b600042831161054a5760405162461bcd60e51b815260206004820152601a60248201527f446561646c696e65206d75737420626520696e206675747572650000000000006044820152606401610433565b60018054600090815260208190526040902080546001600160a01b0319166001600160a01b038a161781559081016105828882610e77565b50600281016105918782610e77565b50600381018590556004810184905560006005820155600681016105b58482610e77565b50600180549060006105c683610f36565b9190505550600180546105d99190610f4f565b98975050505050505050565b6060600060015467ffffffffffffffff81111561060457610604610ad5565b60405190808252806020026020018201604052801561068d57816020015b61067a60405180610120016040528060006001600160a01b0316815260200160608152602001606081526020016000815260200160008152602001600081526020016060815260200160608152602001606081525090565b8152602001906001900390816106225790505b50905060005b60015481101561097b57600081815260208181526040918290208251610120810190935280546001600160a01b0316835260018101805491928401916106d890610dc5565b80601f016020809104026020016040519081016040528092919081815260200182805461070490610dc5565b80156107515780601f1061072657610100808354040283529160200191610751565b820191906000526020600020905b81548152906001019060200180831161073457829003601f168201915b5050505050815260200160028201805461076a90610dc5565b80601f016020809104026020016040519081016040528092919081815260200182805461079690610dc5565b80156107e35780601f106107b8576101008083540402835291602001916107e3565b820191906000526020600020905b8154815290600101906020018083116107c657829003601f168201915b5050505050815260200160038201548152602001600482015481526020016005820154815260200160068201805461081a90610dc5565b80601f016020809104026020016040519081016040528092919081815260200182805461084690610dc5565b80156108935780601f1061086857610100808354040283529160200191610893565b820191906000526020600020905b81548152906001019060200180831161087657829003601f168201915b50505050508152602001600782018054806020026020016040519081016040528092919081815260200182805480156108f557602002820191906000526020600020905b81546001600160a01b031681526001909101906020018083116108d7575b505050505081526020016008820180548060200260200160405190810160405280929190818152602001828054801561094d57602002820191906000526020600020905b815481526020019060010190808311610939575b50505050508152505082828151811061096857610968610f62565b6020908102919091010152600101610693565b50919050565b60006020828403121561099357600080fd5b5035919050565b6040808252835190820181905260009060208501906060840190835b818110156109dd5783516001600160a01b03168352602093840193909201916001016109b6565b50508381036020808601919091528551808352918101925085019060005b81811015610a195782518452602093840193909201916001016109fb565b50919695505050505050565b6000815180845260005b81811015610a4b57602081850181015186830182015201610a2f565b506000602082860101526020601f19601f83011685010191505092915050565b6001600160a01b038816815260e060208201819052600090610a8f90830189610a25565b8281036040840152610aa18189610a25565b90508660608401528560808401528460a084015282810360c0840152610ac78185610a25565b9a9950505050505050505050565b634e487b7160e01b600052604160045260246000fd5b600082601f830112610afc57600080fd5b813567ffffffffffffffff811115610b1657610b16610ad5565b604051601f8201601f19908116603f0116810167ffffffffffffffff81118282101715610b4557610b45610ad5565b604052818152838201602001851015610b5d57600080fd5b816020850160208301376000918101602001919091529392505050565b60008060008060008060c08789031215610b9357600080fd5b86356001600160a01b0381168114610baa57600080fd5b9550602087013567ffffffffffffffff811115610bc657600080fd5b610bd289828a01610aeb565b955050604087013567ffffffffffffffff811115610bef57600080fd5b610bfb89828a01610aeb565b945050606087013592506080870135915060a087013567ffffffffffffffff811115610c2657600080fd5b610c3289828a01610aeb565b9150509295509295509295565b600081518084526020840193506020830160005b82811015610c7a5781516001600160a01b0316865260209586019590910190600101610c53565b5093949350505050565b600081518084526020840193506020830160005b82811015610c7a578151865260209586019590910190600101610c98565b6000602082016020835280845180835260408501915060408160051b86010192506020860160005b82811015610db957868503603f19018452815180516001600160a01b0316865260208101516101206020880152610d19610120880182610a25565b905060408201518782036040890152610d328282610a25565b915050606082015160608801526080820151608088015260a082015160a088015260c082015187820360c0890152610d6a8282610a25565b91505060e082015187820360e0890152610d848282610c3f565b9150506101008201519150868103610100880152610da28183610c84565b965050506020938401939190910190600101610cde565b50929695505050505050565b600181811c90821680610dd957607f821691505b60208210810361097b57634e487b7160e01b600052602260045260246000fd5b634e487b7160e01b600052601160045260246000fd5b80820180821115610e2257610e22610df9565b92915050565b601f821115610e7257806000526020600020601f840160051c81016020851015610e4f5750805b601f840160051c820191505b81811015610e6f5760008155600101610e5b565b50505b505050565b815167ffffffffffffffff811115610e9157610e91610ad5565b610ea581610e9f8454610dc5565b84610e28565b6020601f821160018114610ed95760008315610ec15750848201515b600019600385901b1c1916600184901b178455610e6f565b600084815260208120601f198516915b82811015610f095787850151825560209485019460019092019101610ee9565b5084821015610f275786840151600019600387901b60f8161c191681555b50505050600190811b01905550565b600060018201610f4857610f48610df9565b5060010190565b81810381811115610e2257610e22610df9565b634e487b7160e01b600052603260045260246000fdfea2646970667358221220d802adb7945483020d592a9f1bc5eca4d9788820d3c6a2b74c4e2c9c6adb71d364736f6c634300081c0033",
  "linkReferences": {},
  "deployedLinkReferences": {}
}