{
  "_format": "hh-sol-artifact-1",
  "contractName": "Voting",
  "sourceName": "contracts/Voting.sol",
  "abi": [
    {
      "anonymous": false,
      "inputs": [
        {
          "indexed": true,
          "internalType": "uint256",
          "name": "proposalId",
          "type": "uint256"
        },
        {
          "indexed": true,
          "internalType": "address",
          "name": "proposer",
          "type": "address"
        },
        {
          "indexed": false,
          "internalType": "uint256",
          "name": "targetBlock",
          "type": "uint256"
        }
      ],
      "name": "ProposalCreated",
      "type": "event"
    },
    {
      "anonymous": false,
      "inputs": [
        {
          "indexed": true,
          "internalType": "uint256",
          "name": "proposalId",
          "type": "uint256"
        },
        {
          "indexed": false,
          "internalType": "bool",
          "name": "passed",
          "type": "bool"
        }
      ],
      "name": "ProposalFinalized",
      "type": "event"
    },
    {
      "anonymous": false,
      "inputs": [
        {
          "indexed": true,
          "internalType": "uint256",
          "name": "proposalId",
          "type": "uint256"
        },
        {
          "indexed": true,
          "internalType": "address",
          "name": "voter",
          "type": "address"
        },
        {
          "indexed": false,
          "internalType": "bool",
          "name": "support",
          "type": "bool"
        }
      ],
      "name": "VoteCast",
      "type": "event"
    },
    {
      "inputs": [
        {
          "internalType": "string",
          "name": "_desc",
          "type": "string"
        },
        {
          "internalType": "uint256",
          "name": "_targetBlock",
          "type": "uint256"
        }
      ],
      "name": "createProposal",
      "outputs": [
        {
          "internalType": "uint256",
          "name": "",
          "type": "uint256"
        }
      ],
      "stateMutability": "nonpayable",
      "type": "function"
    },
    {
      "inputs": [
        {
          "internalType": "uint256",
          "name": "_proposalId",
          "type": "uint256"
        }
      ],
      "name": "finalizeProposal",
      "outputs": [],
      "stateMutability": "nonpayable",
      "type": "function"
    },
    {
      "inputs": [
        {
          "internalType": "uint256",
          "name": "_proposalId",
          "type": "uint256"
        }
      ],
      "name": "getProposal",
      "outputs": [
        {
          "internalType": "address",
          "name": "proposer",
          "type": "address"
        },
        {
          "internalType": "string",
          "name": "description",
          "type": "string"
        },
        {
          "internalType": "uint256",
          "name": "targetBlock",
          "type": "uint256"
        },
        {
          "internalType": "uint256",
          "name": "yesVotes",
          "type": "uint256"
        },
        {
          "internalType": "uint256",
          "name": "noVotes",
          "type": "uint256"
        },
        {
          "internalType": "bool",
          "name": "finalized",
          "type": "bool"
        }
      ],
      "stateMutability": "view",
      "type": "function"
    },
    {
      "inputs": [
        {
          "internalType": "uint256",
          "name": "",
          "type": "uint256"
        }
      ],
      "name": "proposals",
      "outputs": [
        {
          "internalType": "address",
          "name": "proposer",
          "type": "address"
        },
        {
          "internalType": "string",
          "name": "description",
          "type": "string"
        },
        {
          "internalType": "uint256",
          "name": "targetBlock",
          "type": "uint256"
        },
        {
          "internalType": "uint256",
          "name": "yesVotes",
          "type": "uint256"
        },
        {
          "internalType": "uint256",
          "name": "noVotes",
          "type": "uint256"
        },
        {
          "internalType": "bool",
          "name": "finalized",
          "type": "bool"
        }
      ],
      "stateMutability": "view",
      "type": "function"
    },
    {
      "inputs": [
        {
          "internalType": "uint256",
          "name": "_proposalId",
          "type": "uint256"
        },
        {
          "internalType": "bool",
          "name": "_support",
          "type": "bool"
        }
      ],
      "name": "vote",
      "outputs": [],
      "stateMutability": "nonpayable",
      "type": "function"
    }
  ],
  "bytecode": "0x6080604052348015600f57600080fd5b506109a48061001f6000396000f3fe608060405234801561001057600080fd5b50600436106100575760003560e01c8063013cf08b1461005c57806335facf781461008a5780635652077c146100ab578063c7f758a8146100c0578063c9d27afe146100d3575b600080fd5b61006f61006a366004610669565b6100e6565b60405161008196959493929190610682565b60405180910390f35b61009d610098366004610703565b6101c4565b604051908152602001610081565b6100be6100b9366004610669565b61030c565b005b61006f6100ce366004610669565b610417565b6100be6100e136600461077c565b610517565b600081815481106100f657600080fd5b6000918252602090912060079091020180546001820180546001600160a01b03909216935090610125906107b1565b80601f0160208091040260200160405190810160405280929190818152602001828054610151906107b1565b801561019e5780601f106101735761010080835404028352916020019161019e565b820191906000526020600020905b81548152906001019060200180831161018157829003601f168201915b505050506002830154600384015460048501546005909501549394919390925060ff1686565b600043821161021a5760405162461bcd60e51b815260206004820152601e60248201527f54617267657420626c6f636b206d75737420626520696e20667574757265000060448201526064015b60405180910390fd5b600080546001810182559080526007027f290decd9548b62a8d60345a988386fc84ba6bc95484008f6362f93160ef3e563810180546001600160a01b03191633178155907f290decd9548b62a8d60345a988386fc84ba6bc95484008f6362f93160ef3e5640161028b858783610850565b50600281018390556000600382018190556004820181905560058201805460ff1916905580546102bd90600190610926565b9050336001600160a01b0316817f3417b456fad6209c73445d5efd446d686e75e4560f0f50c13b5a5cde976447b4866040516102fb91815260200190565b60405180910390a395945050505050565b60008082815481106103205761032061093f565b9060005260206000209060070201905080600201544310156103785760405162461bcd60e51b81526020600482015260116024820152702b37ba34b7339039ba34b6361037b832b760791b6044820152606401610211565b600581015460ff16156103c15760405162461bcd60e51b8152602060048201526011602482015270105b1c9958591e48199a5b985b1a5e9959607a1b6044820152606401610211565b60058101805460ff191660011790556004810154600382015460405191108082529083907fb5ac567fcf1b069e0235e4f16734625c6cf54c1b40517fd9eb85517f6e1265a79060200160405180910390a2505050565b6000606060008060008060008088815481106104355761043561093f565b60009182526020909120600790910201805460028201546003830154600484015460058501546001860180549697506001600160a01b039095169560ff909116908590610481906107b1565b80601f01602080910402602001604051908101604052809291908181526020018280546104ad906107b1565b80156104fa5780601f106104cf576101008083540402835291602001916104fa565b820191906000526020600020905b8154815290600101906020018083116104dd57829003601f168201915b505050505094509650965096509650965096505091939550919395565b600080838154811061052b5761052b61093f565b90600052602060002090600702019050806002015443106105835760405162461bcd60e51b81526020600482015260126024820152712b37ba34b733903832b934b7b21037bb32b960711b6044820152606401610211565b33600090815260068201602052604090205460ff16156105d55760405162461bcd60e51b815260206004820152600d60248201526c105b1c9958591e481d9bdd1959609a1b6044820152606401610211565b3360009081526006820160205260409020805460ff1916600117905581156106135760038101805490600061060983610955565b919050555061062b565b60048101805490600061062583610955565b91905055505b6040518215158152339084907fe71fcdac32df1877c1700e7bda2a03157e20993363a28fc35ac495cefc76e4d49060200160405180910390a3505050565b60006020828403121561067b57600080fd5b5035919050565b60018060a01b038716815260c06020820152600086518060c084015260005b818110156106be576020818a0181015160e08684010152016106a1565b50600060e0828501015260e0601f19601f8301168401019150508560408301528460608301528360808301526106f860a083018415159052565b979650505050505050565b60008060006040848603121561071857600080fd5b833567ffffffffffffffff81111561072f57600080fd5b8401601f8101861361074057600080fd5b803567ffffffffffffffff81111561075757600080fd5b86602082840101111561076957600080fd5b6020918201979096509401359392505050565b6000806040838503121561078f57600080fd5b82359150602083013580151581146107a657600080fd5b809150509250929050565b600181811c908216806107c557607f821691505b6020821081036107e557634e487b7160e01b600052602260045260246000fd5b50919050565b634e487b7160e01b600052604160045260246000fd5b601f82111561084b57806000526020600020601f840160051c810160208510156108285750805b601f840160051c820191505b818110156108485760008155600101610834565b50505b505050565b67ffffffffffffffff831115610868576108686107eb565b61087c8361087683546107b1565b83610801565b6000601f8411600181146108b057600085156108985750838201355b600019600387901b1c1916600186901b178355610848565b600083815260209020601f19861690835b828110156108e157868501358255602094850194600190920191016108c1565b50868210156108fe5760001960f88860031b161c19848701351681555b505060018560011b0183555050505050565b634e487b7160e01b600052601160045260246000fd5b8181038181111561093957610939610910565b92915050565b634e487b7160e01b600052603260045260246000fd5b60006001820161096757610967610910565b506001019056fea26469706673582212202f9755b9a04b49475450d751767116321c23171893e7d8621d4919e6f05cdb9364736f6c634300081c0033",
  "linkReferences": {},
  "deployedLinkReferences": {}
}