{
  "_format": "hh-sol-artifact-1",
  "contractName": "ERC20Token",
  "sourceName": "contracts/ERC20Basic.sol",
  "abi": [
    {
      "inputs": [],
      "stateMutability": "nonpayable",
      "type": "constructor"
    },
    {
      "anonymous": false,
      "inputs": [
        {
          "indexed": true,
          "internalType": "address",
          "name": "owner",
          "type": "address"
        },
        {
          "indexed": true,
          "internalType": "address",
          "name": "spender",
          "type": "address"
        },
        {
          "indexed": false,
          "internalType": "uint256",
          "name": "value",
          "type": "uint256"
        }
      ],
      "name": "Approval",
      "type": "event"
    },
    {
      "anonymous": false,
      "inputs": [
        {
          "indexed": true,
          "internalType": "address",
          "name": "previousOwner",
          "type": "address"
        },
        {
          "indexed": true,
          "internalType": "address",
          "name": "newOwner",
          "type": "address"
        }
      ],
      "name": "OwnershipTransferred",
      "type": "event"
    },
    {
      "anonymous": false,
      "inputs": [
        {
          "indexed": true,
          "internalType": "address",
          "name": "from",
          "type": "address"
        },
        {
          "indexed": true,
          "internalType": "address",
          "name": "to",
          "type": "address"
        },
        {
          "indexed": false,
          "internalType": "uint256",
          "name": "value",
          "type": "uint256"
        }
      ],
      "name": "Transfer",
      "type": "event"
    },
    {
      "inputs": [
        {
          "internalType": "address",
          "name": "owner_",
          "type": "address"
        },
        {
          "internalType": "address",
          "name": "spender",
          "type": "address"
        }
      ],
      "name": "allowance",
      "outputs": [
        {
          "internalType": "uint256",
          "name": "",
          "type": "uint256"
        }
      ],
      "stateMutability": "view",
      "type": "function"
    },
    {
      "inputs": [
        {
          "internalType": "address",
          "name": "spender",
          "type": "address"
        },
        {
          "internalType": "uint256",
          "name": "value",
          "type": "uint256"
        }
      ],
      "name": "approve",
      "outputs": [
        {
          "internalType": "bool",
          "name": "",
          "type": "bool"
        }
      ],
      "stateMutability": "nonpayable",
      "type": "function"
    },
    {
      "inputs": [
        {
          "internalType": "address",
          "name": "who",
          "type": "address"
        }
      ],
      "name": "balanceOf",
      "outputs": [
        {
          "internalType": "uint256",
          "name": "",
          "type": "uint256"
        }
      ],
      "stateMutability": "view",
      "type": "function"
    },
    {
      "inputs": [
        {
          "internalType": "uint256",
          "name": "amount",
          "type": "uint256"
        }
      ],
      "name": "burn",
      "outputs": [],
      "stateMutability": "nonpayable",
      "type": "function"
    },
    {
      "inputs": [],
      "name": "decimals",
      "outputs": [
        {
          "internalType": "uint8",
          "name": "",
          "type": "uint8"
        }
      ],
      "stateMutability": "view",
      "type": "function"
    },
    {
      "inputs": [
        {
          "internalType": "uint256",
          "name": "amount",
          "type": "uint256"
        }
      ],
      "name": "mint",
      "outputs": [],
      "stateMutability": "nonpayable",
      "type": "function"
    },
    {
      "inputs": [],
      "name": "name",
      "outputs": [
        {
          "internalType": "string",
          "name": "",
          "type": "string"
        }
      ],
      "stateMutability": "view",
      "type": "function"
    },
    {
      "inputs": [],
      "name": "owner",
      "outputs": [
        {
          "internalType": "address",
          "name": "",
          "type": "address"
        }
      ],
      "stateMutability": "view",
      "type": "function"
    },
    {
      "inputs": [],
      "name": "renounceOwnership",
      "outputs": [],
      "stateMutability": "nonpayable",
      "type": "function"
    },
    {
      "inputs": [],
      "name": "symbol",
      "outputs": [
        {
          "internalType": "string",
          "name": "",
          "type": "string"
        }
      ],
      "stateMutability": "view",
      "type": "function"
    },
    {
      "inputs": [],
      "name": "totalSupply",
      "outputs": [
        {
          "internalType": "uint256",
          "name": "",
          "type": "uint256"
        }
      ],
      "stateMutability": "view",
      "type": "function"
    },
    {
      "inputs": [
        {
          "internalType": "address",
          "name": "to",
          "type": "address"
        },
        {
          "internalType": "uint256",
          "name": "value",
          "type": "uint256"
        }
      ],
      "name": "transfer",
      "outputs": [
        {
          "internalType": "bool",
          "name": "",
          "type": "bool"
        }
      ],
      "stateMutability": "nonpayable",
      "type": "function"
    },
    {
      "inputs": [
        {
          "internalType": "address",
          "name": "from",
          "type": "address"
        },
        {
          "internalType": "address",
          "name": "to",
          "type": "address"
        },
        {
          "internalType": "uint256",
          "name": "value",
          "type": "uint256"
        }
      ],
      "name": "transferFrom",
      "outputs": [
        {
          "internalType": "bool",
          "name": "",
          "type": "bool"
        }
      ],
      "stateMutability": "nonpayable",
      "type": "function"
    },
    {
      "inputs": [
        {
          "internalType": "address",
          "name": "newOwner",
          "type": "address"
        }
      ],
      "name": "transferOwnership",
      "outputs": [],
      "stateMutability": "nonpayable",
      "type": "function"
    }
  ],
  "bytecode": "0x60c0604052600b60809081526a29b4b6b83632aa37b5b2b760a91b60a05260019061002a908261016b565b5060408051808201909152600481526329aa25a760e11b6020820152600290610053908261016b565b506003805460ff1916601217905534801561006d57600080fd5b506100773361007c565b610229565b600080546001600160a01b038381166001600160a01b0319831681178455604051919092169283917f8be0079c531659141344cd1fd0a4f28419497f9722a3daafe3b4186f6b6457e09190a35050565b634e487b7160e01b600052604160045260246000fd5b600181811c908216806100f657607f821691505b60208210810361011657634e487b7160e01b600052602260045260246000fd5b50919050565b601f82111561016657806000526020600020601f840160051c810160208510156101435750805b601f840160051c820191505b81811015610163576000815560010161014f565b50505b505050565b81516001600160401b03811115610184576101846100cc565b6101988161019284546100e2565b8461011c565b6020601f8211600181146101cc57600083156101b45750848201515b600019600385901b1c1916600184901b178455610163565b600084815260208120601f198516915b828110156101fc57878501518255602094850194600190920191016101dc565b508482101561021a5786840151600019600387901b60f8161c191681555b50505050600190811b01905550565b610a6d806102386000396000f3fe608060405234801561001057600080fd5b50600436106100ea5760003560e01c8063715018a61161008c578063a0712d6811610066578063a0712d68146101dd578063a9059cbb146101f0578063dd62ed3e14610203578063f2fde38b1461023c57600080fd5b8063715018a6146101b25780638da5cb5b146101ba57806395d89b41146101d557600080fd5b806323b872dd116100c857806323b872dd14610142578063313ce5671461015557806342966c681461017457806370a082311461018957600080fd5b806306fdde03146100ef578063095ea7b31461010d57806318160ddd14610130575b600080fd5b6100f761024f565b6040516101049190610869565b60405180910390f35b61012061011b3660046108d3565b6102dd565b6040519015158152602001610104565b6004545b604051908152602001610104565b6101206101503660046108fd565b61034a565b6003546101629060ff1681565b60405160ff9091168152602001610104565b61018761018236600461093a565b6104fc565b005b610134610197366004610953565b6001600160a01b031660009081526005602052604090205490565b6101876105c3565b6000546040516001600160a01b039091168152602001610104565b6100f76105d7565b6101876101eb36600461093a565b6105e4565b6101206101fe3660046108d3565b61064c565b61013461021136600461096e565b6001600160a01b03918216600090815260066020908152604080832093909416825291909152205490565b61018761024a366004610953565b610727565b6001805461025c906109a1565b80601f0160208091040260200160405190810160405280929190818152602001828054610288906109a1565b80156102d55780601f106102aa576101008083540402835291602001916102d5565b820191906000526020600020905b8154815290600101906020018083116102b857829003601f168201915b505050505081565b3360008181526006602090815260408083206001600160a01b038716808552925280832085905551919290917f8c5be1e5ebec7d5bd14f71427d1e84f3dd0314c0f7b2291e5b200ac8c7c3b925906103389086815260200190565b60405180910390a35060015b92915050565b6001600160a01b0383166000908152600560205260408120548211156103ae5760405162461bcd60e51b8152602060048201526014602482015273496e73756666696369656e742062616c616e636560601b60448201526064015b60405180910390fd5b6001600160a01b03841660009081526006602090815260408083203384529091529020548211156104165760405162461bcd60e51b8152602060048201526012602482015271105b1b1bddd85b98d948195e18d95959195960721b60448201526064016103a5565b6001600160a01b03841660009081526005602052604090205461043990836107a0565b6001600160a01b03808616600090815260056020526040808220939093559085168152205461046890836107b3565b6001600160a01b0380851660009081526005602090815260408083209490945591871681526006825282812033825290915220546104a690836107a0565b6001600160a01b0385811660008181526006602090815260408083203384528252918290209490945551858152918616929091600080516020610a18833981519152910160405180910390a35060019392505050565b6105046107bf565b3360009081526005602052604090205481111561055b5760405162461bcd60e51b815260206004820152601560248201527424b739bab33334b1b4b2b73a103337b910313ab93760591b60448201526064016103a5565b60045461056890826107a0565b6004553360009081526005602052604090205461058590826107a0565b33600081815260056020526040808220939093559151600080516020610a18833981519152906105b89085815260200190565b60405180910390a350565b6105cb6107bf565b6105d56000610819565b565b6002805461025c906109a1565b6105ec6107bf565b6004546105f990826107b3565b6004553360009081526005602052604090205461061690826107b3565b33600081815260056020526040808220939093559151909190600080516020610a18833981519152906105b89085815260200190565b336000908152600560205260408120548211156106a25760405162461bcd60e51b8152602060048201526014602482015273496e73756666696369656e742062616c616e636560601b60448201526064016103a5565b336000908152600560205260409020546106bc90836107a0565b33600090815260056020526040808220929092556001600160a01b038516815220546106e890836107b3565b6001600160a01b038416600081815260056020526040908190209290925590513390600080516020610a18833981519152906103389086815260200190565b61072f6107bf565b6001600160a01b0381166107945760405162461bcd60e51b815260206004820152602660248201527f4f776e61626c653a206e6577206f776e657220697320746865207a65726f206160448201526564647265737360d01b60648201526084016103a5565b61079d81610819565b50565b60006107ac82846109f1565b9392505050565b60006107ac8284610a04565b6000546001600160a01b031633146105d55760405162461bcd60e51b815260206004820181905260248201527f4f776e61626c653a2063616c6c6572206973206e6f7420746865206f776e657260448201526064016103a5565b600080546001600160a01b038381166001600160a01b0319831681178455604051919092169283917f8be0079c531659141344cd1fd0a4f28419497f9722a3daafe3b4186f6b6457e09190a35050565b602081526000825180602084015260005b81811015610897576020818601810151604086840101520161087a565b506000604082850101526040601f19601f83011684010191505092915050565b80356001600160a01b03811681146108ce57600080fd5b919050565b600080604083850312156108e657600080fd5b6108ef836108b7565b946020939093013593505050565b60008060006060848603121561091257600080fd5b61091b846108b7565b9250610929602085016108b7565b929592945050506040919091013590565b60006020828403121561094c57600080fd5b5035919050565b60006020828403121561096557600080fd5b6107ac826108b7565b6000806040838503121561098157600080fd5b61098a836108b7565b9150610998602084016108b7565b90509250929050565b600181811c908216806109b557607f821691505b6020821081036109d557634e487b7160e01b600052602260045260246000fd5b50919050565b634e487b7160e01b600052601160045260246000fd5b81810381811115610344576103446109db565b80820180821115610344576103446109db56feddf252ad1be2c89b69c2b068fc378daa952ba7f163c4a11628f55a4df523b3efa264697066735822122069f4c7e350d96e623733941b9e92c0bc9f766c25f0eec8528bb64382be35bab764736f6c634300081c0033",
  "linkReferences": {},
  "deployedLinkReferences": {}
}